{
  "contractName": "Base",
  "abi": [
    {
      "anonymous": false,
      "inputs": [
        {
          "indexed": false,
          "internalType": "address",
          "name": "newContract",
          "type": "address"
        }
      ],
      "name": "ContractUpgrade",
      "type": "event"
    },
    {
      "anonymous": false,
      "inputs": [
        {
          "indexed": false,
          "internalType": "address",
          "name": "from",
          "type": "address"
        },
        {
          "indexed": false,
          "internalType": "address",
          "name": "to",
          "type": "address"
        },
        {
          "indexed": false,
          "internalType": "uint256",
          "name": "amount",
          "type": "uint256"
        },
        {
          "indexed": false,
          "internalType": "uint256",
          "name": "timestamp",
          "type": "uint256"
        }
      ],
      "name": "Donate",
      "type": "event"
    },
    {
      "anonymous": false,
      "inputs": [
        {
          "indexed": false,
          "internalType": "address",
          "name": "from",
          "type": "address"
        },
        {
          "indexed": false,
          "internalType": "address",
          "name": "to",
          "type": "address"
        },
        {
          "indexed": false,
          "internalType": "uint256",
          "name": "amount",
          "type": "uint256"
        },
        {
          "indexed": false,
          "internalType": "uint256",
          "name": "timestamp",
          "type": "uint256"
        }
      ],
      "name": "Refund",
      "type": "event"
    },
    {
      "anonymous": false,
      "inputs": [
        {
          "indexed": false,
          "internalType": "address",
          "name": "from",
          "type": "address"
        },
        {
          "indexed": false,
          "internalType": "address",
          "name": "to",
          "type": "address"
        },
        {
          "indexed": false,
          "internalType": "uint256",
          "name": "amount",
          "type": "uint256"
        },
        {
          "indexed": false,
          "internalType": "uint256",
          "name": "timestamp",
          "type": "uint256"
        }
      ],
      "name": "UseDonation",
      "type": "event"
    },
    {
      "anonymous": false,
      "inputs": [
        {
          "indexed": false,
          "internalType": "address",
          "name": "recipient",
          "type": "address"
        },
        {
          "indexed": false,
          "internalType": "uint256",
          "name": "amount",
          "type": "uint256"
        },
        {
          "indexed": false,
          "internalType": "uint256",
          "name": "timestamp",
          "type": "uint256"
        }
      ],
      "name": "WithdrawDonation",
      "type": "event"
    },
    {
      "constant": true,
      "inputs": [],
      "name": "ceoAddress",
      "outputs": [
        {
          "internalType": "address",
          "name": "",
          "type": "address"
        }
      ],
      "payable": false,
      "stateMutability": "view",
      "type": "function"
    },
    {
      "constant": true,
      "inputs": [],
      "name": "cfoAddress",
      "outputs": [
        {
          "internalType": "address",
          "name": "",
          "type": "address"
        }
      ],
      "payable": false,
      "stateMutability": "view",
      "type": "function"
    },
    {
      "constant": true,
      "inputs": [],
      "name": "cooAddress",
      "outputs": [
        {
          "internalType": "address",
          "name": "",
          "type": "address"
        }
      ],
      "payable": false,
      "stateMutability": "view",
      "type": "function"
    },
    {
      "constant": true,
      "inputs": [],
      "name": "ethExchangeRate",
      "outputs": [
        {
          "internalType": "uint256",
          "name": "",
          "type": "uint256"
        }
      ],
      "payable": false,
      "stateMutability": "view",
      "type": "function"
    },
    {
      "constant": false,
      "inputs": [],
      "name": "pause",
      "outputs": [],
      "payable": false,
      "stateMutability": "nonpayable",
      "type": "function"
    },
    {
      "constant": true,
      "inputs": [],
      "name": "paused",
      "outputs": [
        {
          "internalType": "bool",
          "name": "",
          "type": "bool"
        }
      ],
      "payable": false,
      "stateMutability": "view",
      "type": "function"
    },
    {
      "constant": false,
      "inputs": [
        {
          "internalType": "address",
          "name": "_newCEO",
          "type": "address"
        }
      ],
      "name": "setCEO",
      "outputs": [],
      "payable": false,
      "stateMutability": "nonpayable",
      "type": "function"
    },
    {
      "constant": false,
      "inputs": [
        {
          "internalType": "address",
          "name": "_newCFO",
          "type": "address"
        }
      ],
      "name": "setCFO",
      "outputs": [],
      "payable": false,
      "stateMutability": "nonpayable",
      "type": "function"
    },
    {
      "constant": false,
      "inputs": [
        {
          "internalType": "address",
          "name": "_newCOO",
          "type": "address"
        }
      ],
      "name": "setCOO",
      "outputs": [],
      "payable": false,
      "stateMutability": "nonpayable",
      "type": "function"
    },
    {
      "constant": false,
      "inputs": [],
      "name": "unPause",
      "outputs": [],
      "payable": false,
      "stateMutability": "nonpayable",
      "type": "function"
    }
  ],
  "bytecode": "0x60806040526000600260146101000a81548160ff021916908315150217905550610640600355336000806101000a81548173ffffffffffffffffffffffffffffffffffffffff021916908373ffffffffffffffffffffffffffffffffffffffff160217905550610a99806100746000396000f3fe608060405234801561001057600080fd5b506004361061009e5760003560e01c80634e0a3379116100665780634e0a3379146101dd5780635c975abb146102215780638456cb5914610243578063b047fb501461024d578063f7b188a5146102975761009e565b80630519ce79146100a35780630a0f8168146100ed5780630b961e481461013757806327d7874c146101555780632ba73c1514610199575b600080fd5b6100ab6102a1565b604051808273ffffffffffffffffffffffffffffffffffffffff1673ffffffffffffffffffffffffffffffffffffffff16815260200191505060405180910390f35b6100f56102c7565b604051808273ffffffffffffffffffffffffffffffffffffffff1673ffffffffffffffffffffffffffffffffffffffff16815260200191505060405180910390f35b61013f6102ec565b6040518082815260200191505060405180910390f35b6101976004803603602081101561016b57600080fd5b81019080803573ffffffffffffffffffffffffffffffffffffffff1690602001909291905050506102f2565b005b6101db600480360360208110156101af57600080fd5b81019080803573ffffffffffffffffffffffffffffffffffffffff169060200190929190505050610431565b005b61021f600480360360208110156101f357600080fd5b81019080803573ffffffffffffffffffffffffffffffffffffffff169060200190929190505050610571565b005b6102296106b1565b604051808215151515815260200191505060405180910390f35b61024b6106c4565b005b6102556108b9565b604051808273ffffffffffffffffffffffffffffffffffffffff1673ffffffffffffffffffffffffffffffffffffffff16815260200191505060405180910390f35b61029f6108df565b005b600160009054906101000a900473ffffffffffffffffffffffffffffffffffffffff1681565b6000809054906101000a900473ffffffffffffffffffffffffffffffffffffffff1681565b60035481565b6000809054906101000a900473ffffffffffffffffffffffffffffffffffffffff1673ffffffffffffffffffffffffffffffffffffffff163373ffffffffffffffffffffffffffffffffffffffff16146103b4576040517f08c379a000000000000000000000000000000000000000000000000000000000815260040180806020018281038252601b8152602001807fe58faae69c8943454fe883bde4bdbfe794a8e6ada4e58a9fe883bd000000000081525060200191505060405180910390fd5b600073ffffffffffffffffffffffffffffffffffffffff168173ffffffffffffffffffffffffffffffffffffffff1614156103ee57600080fd5b806000806101000a81548173ffffffffffffffffffffffffffffffffffffffff021916908373ffffffffffffffffffffffffffffffffffffffff16021790555050565b6000809054906101000a900473ffffffffffffffffffffffffffffffffffffffff1673ffffffffffffffffffffffffffffffffffffffff163373ffffffffffffffffffffffffffffffffffffffff16146104f3576040517f08c379a000000000000000000000000000000000000000000000000000000000815260040180806020018281038252601b8152602001807fe58faae69c8943454fe883bde4bdbfe794a8e6ada4e58a9fe883bd000000000081525060200191505060405180910390fd5b600073ffffffffffffffffffffffffffffffffffffffff168173ffffffffffffffffffffffffffffffffffffffff16141561052d57600080fd5b80600260006101000a81548173ffffffffffffffffffffffffffffffffffffffff021916908373ffffffffffffffffffffffffffffffffffffffff16021790555050565b6000809054906101000a900473ffffffffffffffffffffffffffffffffffffffff1673ffffffffffffffffffffffffffffffffffffffff163373ffffffffffffffffffffffffffffffffffffffff1614610633576040517f08c379a000000000000000000000000000000000000000000000000000000000815260040180806020018281038252601b8152602001807fe58faae69c8943454fe883bde4bdbfe794a8e6ada4e58a9fe883bd000000000081525060200191505060405180910390fd5b600073ffffffffffffffffffffffffffffffffffffffff168173ffffffffffffffffffffffffffffffffffffffff16141561066d57600080fd5b80600160006101000a81548173ffffffffffffffffffffffffffffffffffffffff021916908373ffffffffffffffffffffffffffffffffffffffff16021790555050565b600260149054906101000a900460ff1681565b600260009054906101000a900473ffffffffffffffffffffffffffffffffffffffff1673ffffffffffffffffffffffffffffffffffffffff163373ffffffffffffffffffffffffffffffffffffffff16148061076c57506000809054906101000a900473ffffffffffffffffffffffffffffffffffffffff1673ffffffffffffffffffffffffffffffffffffffff163373ffffffffffffffffffffffffffffffffffffffff16145b806107c45750600160009054906101000a900473ffffffffffffffffffffffffffffffffffffffff1673ffffffffffffffffffffffffffffffffffffffff163373ffffffffffffffffffffffffffffffffffffffff16145b610819576040517f08c379a0000000000000000000000000000000000000000000000000000000008152600401808060200182810382526024815260200180610a416024913960400191505060405180910390fd5b600260149054906101000a900460ff161561089c576040517f08c379a00000000000000000000000000000000000000000000000000000000081526004018080602001828103825260128152602001807fe58d8fe8aeaee5b7b2e7bb8fe69a82e5819c000000000000000000000000000081525060200191505060405180910390fd5b6001600260146101000a81548160ff021916908315150217905550565b600260009054906101000a900473ffffffffffffffffffffffffffffffffffffffff1681565b6000809054906101000a900473ffffffffffffffffffffffffffffffffffffffff1673ffffffffffffffffffffffffffffffffffffffff163373ffffffffffffffffffffffffffffffffffffffff16146109a1576040517f08c379a000000000000000000000000000000000000000000000000000000000815260040180806020018281038252601b8152602001807fe58faae69c8943454fe883bde4bdbfe794a8e6ada4e58a9fe883bd000000000081525060200191505060405180910390fd5b600260149054906101000a900460ff16610a23576040517f08c379a00000000000000000000000000000000000000000000000000000000081526004018080602001828103825260128152602001807fe58d8fe8aeaee5b09ae69caae69a82e5819c000000000000000000000000000081525060200191505060405180910390fd5b6000600260146101000a81548160ff02191690831515021790555056fee58faae69c89e6a0b8e5bf83e8a792e889b2e883bde4bdbfe794a8e6ada4e58a9fe883bda265627a7a7231582068831c0c8524ec91034baa9ee00ea9f79adda7ef636b299108b0eba81f3e82da64736f6c63430005100032",
  "source": "pragma solidity ^0.5.16;\n\n/// @title AccessControl\n/// @author yang\n/// @dev 实现核心角色的权限管理\n\ncontract AccessControl {\n    /**\n     * 按照职能设计了以下三个角色，避免权力过于集中。\n     * CEO：能够调整其他角色和修改协议地址，协议暂停后只有它能够重启协议，保证安全性\n     *CFO：控制代币的发行及兑换工作\n     *COO：负责审核各类信息及其他需要权限进行的操作\n     */\n\n    // 执行每个角色的协议地址\n    address public ceoAddress;\n    address public cfoAddress;\n    address public cooAddress;\n\n    // 管理协议是否被暂定，暂停时大多数行动都会被阻塞\n    bool public paused = false;\n\n    // 协议升级时的事件\n    event ContractUpgrade(address newContract);\n\n    // 提供只有CEO能够使用的功能的权限检查\n    modifier onlyCEO() {\n        require(msg.sender == ceoAddress,\"只有CEO能使用此功能\");\n        _;\n    }\n\n    // 提供只有CFO能够使用的功能的权限检查\n    modifier onlyCFO() {\n        require(msg.sender == cfoAddress,\"只有CFO能使用此功能\");\n        _;\n    }\n\n    // 提供只有COO能够使用的功能的权限检查\n    modifier onlyCOO() {\n        require(msg.sender == cooAddress,\"只有COO能使用此功能\");\n        _;\n    }\n\n    // 提供这三种角色都能够使用的功能的权限检查\n    modifier onlyCLevel() {\n        require(\n            msg.sender == cooAddress ||\n            msg.sender == ceoAddress ||\n            msg.sender == cfoAddress,\"只有核心角色能使用此功能\");\n            _;\n    }\n\n    // 提供没有被暂停的状态检查\n    modifier whenNotPaused() {\n        require(!paused,\"协议已经暂停\");\n        _;\n    }\n\n    // 提供已被暂停的状态检查\n    modifier whenPaused {\n        require(paused,\"协议尚未暂停\");\n        _;\n    }\n\n    // 构造函数，默认该合约的创建者为第一任CEO\n   constructor() public {\n       ceoAddress = msg.sender;\n   }\n\n    /// @dev 让当前CEO指派一名新的CEO\n    /// @param _newCEO 新的CEO的地址\n\n    function setCEO(address _newCEO) external onlyCEO {\n        require(_newCEO != address(0));\n        ceoAddress = _newCEO;\n    }\n\n    /// @dev 让CEO指派一名新的CFO\n    /// @param _newCFO 新的CFO的地址\n    function setCFO(address _newCFO) external onlyCEO {\n        require(_newCFO != address(0));\n        cfoAddress = _newCFO;\n    }\n\n    /// @dev 让CEO指派一名新的COO\n    /// @param _newCOO 新的COO的地址\n    function setCOO(address _newCOO) external onlyCEO {\n        require(_newCOO != address(0));\n        cooAddress = _newCOO;\n    }\n\n    /// @dev 三种角色都能够启动暂定操作，用以应对潜在的bug和缺陷，以降低损失\n    function pause() external onlyCLevel whenNotPaused {\n        paused = true;\n    }\n\n    /// @dev 只有CEO能够取消暂停状态，用来规避当CFO或COO被攻破的情况\n    function unPause() public onlyCEO whenPaused {\n        paused = false;\n    }\n}\n\n/// @title Base\n/// @author yang\n/// @dev 保存公用的结构体、事件、基本变量\n\ncontract Base is AccessControl {\n    // 捐赠者信息\n    struct Donator {\n        address addr; // 捐赠者地址\n        uint amount; // 捐赠金额\n        string name; // 捐赠者名称\n    }\n\n    // 捐款活动所包含的信息\n    struct Campaign {\n        string name; // 捐款活动的名称\n        uint targetAmount; // 捐赠活动的目标金额\n        uint durationInMinutes; // 捐赠活动以分钟为单位的持续时间\n        uint deadline; // 捐赠活动的截止时间\n        address recipient; // 接收方地址\n        uint raisedAmount; // 捐赠活动已筹集的金额\n        uint donatorAccount; // 已捐赠人数\n        uint8 status; // 捐赠活动所处状态\n        mapping (address => uint) donatorToID; // 捐赠者地址到id的映射\n        //mapping (uint => Donator) donators; // 该项目的所有捐款者\n        address[] donatorAddresses; // 该项目的所有捐款者地址\n        uint[] donatorAmounts; // 该项目的所有捐款者的捐款金额\n        string[] progresses; // 该项目的进展情况\n    }\n\n    // 每笔捐赠记录的信息\n    struct DonationRecord {\n        address donator; // 捐赠者地址\n        address recipient; // 受益者地址\n        uint amount; // 捐赠金额\n        uint timestamp; // 捐赠时间戳\n    }\n\n    uint public ethExchangeRate = 1600; // 以太币和人民币的汇率，1 ether = ¥1600\n\n     event Donate(address from, address to,  uint amount, uint timestamp);\n     event UseDonation(address from, address to,  uint amount, uint timestamp);\n     event WithdrawDonation(address recipient, uint amount, uint timestamp);\n     event Refund(address from, address to,  uint amount, uint timestamp);\n}\n\n/// @title DonationProject\n/// @author yang\n/// @dev 提供了捐赠项目的管理功能，例如新建、审核、完成等功能。\n\ncontract DonationCampaign is Base {\n    //address public owner;\n    Campaign[] public  campaigns;\n    uint public totalCampaigns;\n    uint public activeCampaigns;\n\n    event CampaignChange(uint campaignID, address recipient, string description);\n\n    function createCampaign(\n         string memory _name,\n         uint _targetAmount,\n         uint _durationInMinutes\n    )   public {\n        require(\n            msg.sender != ceoAddress &&\n            msg.sender != cfoAddress &&\n            msg.sender != cooAddress,\"管理人员不能创建项目\"\n        );\n        address[] memory _donatorAddresses;\n        uint[] memory _donatorAmounts;\n        string[] memory _progresses;\n        Campaign memory newCampaign = Campaign({\n            name: _name,\n            targetAmount: _targetAmount,\n            durationInMinutes: _durationInMinutes,\n            deadline: now + (_durationInMinutes * 1 minutes),\n            recipient: msg.sender,\n            raisedAmount: 0,\n            donatorAccount: 0,\n            status: 0,\n            donatorAddresses: _donatorAddresses,\n            donatorAmounts: _donatorAmounts,\n            progresses:_progresses\n        });\n        campaigns.push(newCampaign);\n        totalCampaigns++;\n        emit CampaignChange(campaigns.length-1, newCampaign.recipient, \"创建项目\");\n    }\n\n    function updateStatus(uint campaignID,uint8 _status) private onlyCOO {\n        require(campaignID < campaigns.length, \"项目索引超出范围\");\n        require(_status >= 0 && _status <=4, \"状态变量不合理\");\n        campaigns[campaignID].status = _status;\n    }\n\n    function rejectCampaign(uint campaignID) public onlyCOO {\n        require(campaignID < campaigns.length, \"项目索引超出范围\");\n        require(campaigns[campaignID].status == 0, \"项目不处于审核期间\");\n        //delete campaigns[campaignID];\n        updateStatus(campaignID, 1);\n        emit CampaignChange(campaignID, campaigns[campaignID].recipient, \"拒绝项目\");\n    }\n\n     function approveCampaign(uint campaignID) public onlyCOO {\n         require(campaignID < campaigns.length, \"项目索引超出范围\");\n         require(campaigns[campaignID].status == 0, \"项目不处于审核期间\");\n         updateStatus(campaignID, 2);\n         activeCampaigns++;\n         //totalCampaigns++;\n         emit CampaignChange(campaignID, campaigns[campaignID].recipient, \"发布项目\");\n     }\n\n    function cancelCampaign(uint campaignID) public onlyCOO {\n        require(campaignID < campaigns.length, \"项目索引超出范围\");\n        require(campaigns[campaignID].status == 2, \"项目不处于运行期间\");\n        updateStatus(campaignID, 3);\n        activeCampaigns--;\n        emit CampaignChange(campaignID, campaigns[campaignID].recipient, \"意外终止项目\");\n    }\n\n    function finalizeCampaign(uint campaignID) public onlyCOO {\n        require(campaignID < campaigns.length, \"项目索引超出范围\");\n        require(campaigns[campaignID].status == 2, \"项目不处于运行期间\");\n        require(now > campaigns[campaignID].deadline,\"项目还未到截止时间\");\n        require(campaigns[campaignID].raisedAmount >= campaigns[campaignID].targetAmount,\"还未筹集到足够资金\");\n        uint amount = campaigns[campaignID].raisedAmount;\n        campaigns[campaignID].raisedAmount = 0;\n        address payable recipient = address(uint160(campaigns[campaignID].recipient));\n        recipient.transfer(amount * 1 ether / ethExchangeRate);\n        emit WithdrawDonation(campaigns[campaignID].recipient, amount, now);\n        updateStatus(campaignID, 4);\n        activeCampaigns--;\n        emit CampaignChange(campaignID, campaigns[campaignID].recipient, \"项目顺利完成\");\n    }\n\n     function delayCampaign(uint campaignID, uint durationInMinutes) public onlyCOO {\n        require(campaignID < campaigns.length, \"项目索引超出范围\");\n        require(campaigns[campaignID].status == 2, \"项目不处于运行期间\");\n        campaigns[campaignID].deadline += (durationInMinutes * 1 minutes);\n        emit CampaignChange(campaignID, campaigns[campaignID].recipient, \"延迟项目\");\n    }\n\n     function updateCampaign(uint campaignID, string memory progress) public onlyCOO {\n         campaigns[campaignID].progresses.push(progress);\n         emit CampaignChange(campaignID, campaigns[campaignID].recipient, \"更新项目进展\");\n     }\n}\n\ncontract Donate is DonationCampaign {\n    uint public minimumContribution;\n    //Donator[] public donators;\n    DonationRecord[] public donationRecords;\n    uint public totalDonationRecords;\n    uint public totalRaisedAmount;\n\n    constructor() public {\n        minimumContribution = 1 * 1 ether / ethExchangeRate;\n    }\n\n    function() external payable {\n\n    }\n\n    function donate(uint campaignID) public payable {\n        require(campaignID < campaigns.length, \"项目索引超出范围\");\n        require(campaigns[campaignID].status == 2, \"项目不处于运行期间\");\n        require(msg.value >= minimumContribution,\"捐款不得低于1块钱\");\n        Campaign storage campaign = campaigns[campaignID];\n        address addr = address(msg.sender);\n        uint amount = (ethExchangeRate * msg.value) / 1 ether;\n        //Donator memory donator = Donator({addr: addr, amount: amount});\n        uint id = campaign.donatorToID[addr];\n        if(id > 0){\n            //campaign.donators[id].amount += amount;\n            campaign.donatorAmounts[id - 1] += amount;\n        } else{\n            campaign.donatorAccount++;\n            //campaign.donatorAddresses[campaign.donatorAccount] = addr;\n            //campaign.donatorAmounts[campaign.donatorAccount] = amount;\n            campaign.donatorAddresses.push(addr);\n            campaign.donatorAmounts.push(amount);\n           // campaign.donators[campaign.donatorAccount] = donator;\n            campaign.donatorToID[addr] = campaign.donatorAccount;\n        }\n        campaign.raisedAmount += amount;\n        DonationRecord memory donationRecord = DonationRecord({\n            donator: addr,\n            recipient: campaign.recipient,\n            amount: amount,\n            timestamp:now\n        });\n        donationRecords.push(donationRecord);\n        totalDonationRecords++;\n        totalRaisedAmount += amount;\n        emit Donate(msg.sender, campaign.recipient, amount, now);\n    }\n\n    function getDonatorByID(uint campaignID, uint donatorID) public view returns (address , uint) {\n        require(campaignID < campaigns.length, \"项目索引超出范围\");\n        require(campaigns[campaignID].status == 2 || campaigns[campaignID].status == 4, \"项目异常\");\n        require(donatorID < campaigns[campaignID].donatorAccount, \"捐赠者索引超出范围\");\n        //Donator memory donator = campaigns[campaignID].donators[donatorID];\n        Campaign memory campaign = campaigns[campaignID];\n        return (campaign.donatorAddresses[donatorID], campaign.donatorAmounts[donatorID]);\n    }\n\n    function getAllDonators(uint campaignID) public view returns(address[] memory, uint[] memory) {\n        require(campaignID < campaigns.length, \"项目索引超出范围\");\n        require(campaigns[campaignID].status == 2, \"项目不处于运行期间\");\n        Campaign memory campaign = campaigns[campaignID];\n        return (campaign.donatorAddresses, campaign.donatorAmounts);\n    }\n\n    function refund(uint campaignID) public {\n        require(campaignID < campaigns.length, \"项目索引超出范围\");\n        require(campaigns[campaignID].status == 3, \"项目没有被提前终止\");\n        Campaign storage campaign = campaigns[campaignID];\n        //address addr = msg.sender;\n        uint id = campaign.donatorToID[msg.sender];\n        require(id > 0,\"你没为该项目捐过款\");\n        uint amount = campaign.donatorAmounts[id - 1];\n        campaign.donatorAmounts[id - 1] = 0;\n        msg.sender.transfer((amount * 1 ether) / ethExchangeRate);\n        emit Refund(campaign.recipient,msg.sender,amount,now);\n    }\n}\n\ncontract Donation is Donate {\n\n}\n",
  "sourcePath": "/home/yang/dipp/contracts/Donation.sol",
  "compiler": {
    "name": "solc",
    "version": "0.5.16+commit.9c3226ce.Emscripten.clang"
  },
  "schemaVersion": "3.1.0",
  "updatedAt": "2020-06-23T08:25:58.196Z",
  "devdoc": {
    "author": "yang",
    "details": "保存公用的结构体、事件、基本变量",
    "methods": {
      "pause()": {
        "details": "三种角色都能够启动暂定操作，用以应对潜在的bug和缺陷，以降低损失"
      },
      "setCEO(address)": {
        "details": "让当前CEO指派一名新的CEO",
        "params": {
          "_newCEO": "新的CEO的地址"
        }
      },
      "setCFO(address)": {
        "details": "让CEO指派一名新的CFO",
        "params": {
          "_newCFO": "新的CFO的地址"
        }
      },
      "setCOO(address)": {
        "details": "让CEO指派一名新的COO",
        "params": {
          "_newCOO": "新的COO的地址"
        }
      },
      "unPause()": {
        "details": "只有CEO能够取消暂停状态，用来规避当CFO或COO被攻破的情况"
      }
    },
    "title": "Base"
  },
  "userdoc": {
    "methods": {}
  }
}