{
  "contractName": "Donation",
  "abi": [
    {
      "anonymous": false,
      "inputs": [
        {
          "indexed": false,
          "internalType": "uint256",
          "name": "campaignID",
          "type": "uint256"
        },
        {
          "indexed": false,
          "internalType": "address",
          "name": "recipient",
          "type": "address"
        },
        {
          "indexed": false,
          "internalType": "string",
          "name": "description",
          "type": "string"
        }
      ],
      "name": "CampaignChange",
      "type": "event"
    },
    {
      "anonymous": false,
      "inputs": [
        {
          "indexed": false,
          "internalType": "address",
          "name": "newContract",
          "type": "address"
        }
      ],
      "name": "ContractUpgrade",
      "type": "event"
    },
    {
      "anonymous": false,
      "inputs": [
        {
          "indexed": false,
          "internalType": "address",
          "name": "from",
          "type": "address"
        },
        {
          "indexed": false,
          "internalType": "address",
          "name": "to",
          "type": "address"
        },
        {
          "indexed": false,
          "internalType": "uint256",
          "name": "amount",
          "type": "uint256"
        },
        {
          "indexed": false,
          "internalType": "uint256",
          "name": "timestamp",
          "type": "uint256"
        }
      ],
      "name": "Donate",
      "type": "event"
    },
    {
      "anonymous": false,
      "inputs": [
        {
          "indexed": false,
          "internalType": "address",
          "name": "from",
          "type": "address"
        },
        {
          "indexed": false,
          "internalType": "address",
          "name": "to",
          "type": "address"
        },
        {
          "indexed": false,
          "internalType": "uint256",
          "name": "amount",
          "type": "uint256"
        },
        {
          "indexed": false,
          "internalType": "uint256",
          "name": "timestamp",
          "type": "uint256"
        }
      ],
      "name": "Refund",
      "type": "event"
    },
    {
      "anonymous": false,
      "inputs": [
        {
          "indexed": false,
          "internalType": "address",
          "name": "from",
          "type": "address"
        },
        {
          "indexed": false,
          "internalType": "address",
          "name": "to",
          "type": "address"
        },
        {
          "indexed": false,
          "internalType": "uint256",
          "name": "amount",
          "type": "uint256"
        },
        {
          "indexed": false,
          "internalType": "uint256",
          "name": "timestamp",
          "type": "uint256"
        }
      ],
      "name": "UseDonation",
      "type": "event"
    },
    {
      "anonymous": false,
      "inputs": [
        {
          "indexed": false,
          "internalType": "address",
          "name": "recipient",
          "type": "address"
        },
        {
          "indexed": false,
          "internalType": "uint256",
          "name": "amount",
          "type": "uint256"
        },
        {
          "indexed": false,
          "internalType": "uint256",
          "name": "timestamp",
          "type": "uint256"
        }
      ],
      "name": "WithdrawDonation",
      "type": "event"
    },
    {
      "payable": true,
      "stateMutability": "payable",
      "type": "fallback"
    },
    {
      "constant": true,
      "inputs": [],
      "name": "activeCampaigns",
      "outputs": [
        {
          "internalType": "uint256",
          "name": "",
          "type": "uint256"
        }
      ],
      "payable": false,
      "stateMutability": "view",
      "type": "function"
    },
    {
      "constant": false,
      "inputs": [
        {
          "internalType": "uint256",
          "name": "campaignID",
          "type": "uint256"
        }
      ],
      "name": "approveCampaign",
      "outputs": [],
      "payable": false,
      "stateMutability": "nonpayable",
      "type": "function"
    },
    {
      "constant": true,
      "inputs": [
        {
          "internalType": "uint256",
          "name": "",
          "type": "uint256"
        }
      ],
      "name": "campaigns",
      "outputs": [
        {
          "internalType": "string",
          "name": "name",
          "type": "string"
        },
        {
          "internalType": "uint256",
          "name": "targetAmount",
          "type": "uint256"
        },
        {
          "internalType": "uint256",
          "name": "durationInMinutes",
          "type": "uint256"
        },
        {
          "internalType": "uint256",
          "name": "deadline",
          "type": "uint256"
        },
        {
          "internalType": "address",
          "name": "recipient",
          "type": "address"
        },
        {
          "internalType": "uint256",
          "name": "raisedAmount",
          "type": "uint256"
        },
        {
          "internalType": "uint256",
          "name": "donatorAccount",
          "type": "uint256"
        },
        {
          "internalType": "uint8",
          "name": "status",
          "type": "uint8"
        }
      ],
      "payable": false,
      "stateMutability": "view",
      "type": "function"
    },
    {
      "constant": false,
      "inputs": [
        {
          "internalType": "uint256",
          "name": "campaignID",
          "type": "uint256"
        }
      ],
      "name": "cancelCampaign",
      "outputs": [],
      "payable": false,
      "stateMutability": "nonpayable",
      "type": "function"
    },
    {
      "constant": true,
      "inputs": [],
      "name": "ceoAddress",
      "outputs": [
        {
          "internalType": "address",
          "name": "",
          "type": "address"
        }
      ],
      "payable": false,
      "stateMutability": "view",
      "type": "function"
    },
    {
      "constant": true,
      "inputs": [],
      "name": "cfoAddress",
      "outputs": [
        {
          "internalType": "address",
          "name": "",
          "type": "address"
        }
      ],
      "payable": false,
      "stateMutability": "view",
      "type": "function"
    },
    {
      "constant": true,
      "inputs": [],
      "name": "cooAddress",
      "outputs": [
        {
          "internalType": "address",
          "name": "",
          "type": "address"
        }
      ],
      "payable": false,
      "stateMutability": "view",
      "type": "function"
    },
    {
      "constant": false,
      "inputs": [
        {
          "internalType": "string",
          "name": "_name",
          "type": "string"
        },
        {
          "internalType": "uint256",
          "name": "_targetAmount",
          "type": "uint256"
        },
        {
          "internalType": "uint256",
          "name": "_durationInMinutes",
          "type": "uint256"
        }
      ],
      "name": "createCampaign",
      "outputs": [],
      "payable": false,
      "stateMutability": "nonpayable",
      "type": "function"
    },
    {
      "constant": false,
      "inputs": [
        {
          "internalType": "uint256",
          "name": "campaignID",
          "type": "uint256"
        },
        {
          "internalType": "uint256",
          "name": "durationInMinutes",
          "type": "uint256"
        }
      ],
      "name": "delayCampaign",
      "outputs": [],
      "payable": false,
      "stateMutability": "nonpayable",
      "type": "function"
    },
    {
      "constant": false,
      "inputs": [
        {
          "internalType": "uint256",
          "name": "campaignID",
          "type": "uint256"
        }
      ],
      "name": "donate",
      "outputs": [],
      "payable": true,
      "stateMutability": "payable",
      "type": "function"
    },
    {
      "constant": true,
      "inputs": [
        {
          "internalType": "uint256",
          "name": "",
          "type": "uint256"
        }
      ],
      "name": "donationRecords",
      "outputs": [
        {
          "internalType": "address",
          "name": "donator",
          "type": "address"
        },
        {
          "internalType": "address",
          "name": "recipient",
          "type": "address"
        },
        {
          "internalType": "uint256",
          "name": "amount",
          "type": "uint256"
        },
        {
          "internalType": "uint256",
          "name": "timestamp",
          "type": "uint256"
        }
      ],
      "payable": false,
      "stateMutability": "view",
      "type": "function"
    },
    {
      "constant": true,
      "inputs": [],
      "name": "ethExchangeRate",
      "outputs": [
        {
          "internalType": "uint256",
          "name": "",
          "type": "uint256"
        }
      ],
      "payable": false,
      "stateMutability": "view",
      "type": "function"
    },
    {
      "constant": false,
      "inputs": [
        {
          "internalType": "uint256",
          "name": "campaignID",
          "type": "uint256"
        }
      ],
      "name": "finalizeCampaign",
      "outputs": [],
      "payable": false,
      "stateMutability": "nonpayable",
      "type": "function"
    },
    {
      "constant": true,
      "inputs": [
        {
          "internalType": "uint256",
          "name": "campaignID",
          "type": "uint256"
        }
      ],
      "name": "getAllDonators",
      "outputs": [
        {
          "internalType": "address[]",
          "name": "",
          "type": "address[]"
        },
        {
          "internalType": "uint256[]",
          "name": "",
          "type": "uint256[]"
        }
      ],
      "payable": false,
      "stateMutability": "view",
      "type": "function"
    },
    {
      "constant": true,
      "inputs": [
        {
          "internalType": "uint256",
          "name": "campaignID",
          "type": "uint256"
        },
        {
          "internalType": "uint256",
          "name": "donatorID",
          "type": "uint256"
        }
      ],
      "name": "getDonatorByID",
      "outputs": [
        {
          "internalType": "address",
          "name": "",
          "type": "address"
        },
        {
          "internalType": "uint256",
          "name": "",
          "type": "uint256"
        }
      ],
      "payable": false,
      "stateMutability": "view",
      "type": "function"
    },
    {
      "constant": true,
      "inputs": [],
      "name": "minimumContribution",
      "outputs": [
        {
          "internalType": "uint256",
          "name": "",
          "type": "uint256"
        }
      ],
      "payable": false,
      "stateMutability": "view",
      "type": "function"
    },
    {
      "constant": false,
      "inputs": [],
      "name": "pause",
      "outputs": [],
      "payable": false,
      "stateMutability": "nonpayable",
      "type": "function"
    },
    {
      "constant": true,
      "inputs": [],
      "name": "paused",
      "outputs": [
        {
          "internalType": "bool",
          "name": "",
          "type": "bool"
        }
      ],
      "payable": false,
      "stateMutability": "view",
      "type": "function"
    },
    {
      "constant": false,
      "inputs": [
        {
          "internalType": "uint256",
          "name": "campaignID",
          "type": "uint256"
        }
      ],
      "name": "refund",
      "outputs": [],
      "payable": false,
      "stateMutability": "nonpayable",
      "type": "function"
    },
    {
      "constant": false,
      "inputs": [
        {
          "internalType": "uint256",
          "name": "campaignID",
          "type": "uint256"
        }
      ],
      "name": "rejectCampaign",
      "outputs": [],
      "payable": false,
      "stateMutability": "nonpayable",
      "type": "function"
    },
    {
      "constant": false,
      "inputs": [
        {
          "internalType": "address",
          "name": "_newCEO",
          "type": "address"
        }
      ],
      "name": "setCEO",
      "outputs": [],
      "payable": false,
      "stateMutability": "nonpayable",
      "type": "function"
    },
    {
      "constant": false,
      "inputs": [
        {
          "internalType": "address",
          "name": "_newCFO",
          "type": "address"
        }
      ],
      "name": "setCFO",
      "outputs": [],
      "payable": false,
      "stateMutability": "nonpayable",
      "type": "function"
    },
    {
      "constant": false,
      "inputs": [
        {
          "internalType": "address",
          "name": "_newCOO",
          "type": "address"
        }
      ],
      "name": "setCOO",
      "outputs": [],
      "payable": false,
      "stateMutability": "nonpayable",
      "type": "function"
    },
    {
      "constant": true,
      "inputs": [],
      "name": "totalCampaigns",
      "outputs": [
        {
          "internalType": "uint256",
          "name": "",
          "type": "uint256"
        }
      ],
      "payable": false,
      "stateMutability": "view",
      "type": "function"
    },
    {
      "constant": true,
      "inputs": [],
      "name": "totalDonationRecords",
      "outputs": [
        {
          "internalType": "uint256",
          "name": "",
          "type": "uint256"
        }
      ],
      "payable": false,
      "stateMutability": "view",
      "type": "function"
    },
    {
      "constant": true,
      "inputs": [],
      "name": "totalRaisedAmount",
      "outputs": [
        {
          "internalType": "uint256",
          "name": "",
          "type": "uint256"
        }
      ],
      "payable": false,
      "stateMutability": "view",
      "type": "function"
    },
    {
      "constant": false,
      "inputs": [],
      "name": "unPause",
      "outputs": [],
      "payable": false,
      "stateMutability": "nonpayable",
      "type": "function"
    },
    {
      "constant": false,
      "inputs": [
        {
          "internalType": "uint256",
          "name": "campaignID",
          "type": "uint256"
        },
        {
          "internalType": "string",
          "name": "progress",
          "type": "string"
        }
      ],
      "name": "updateCampaign",
      "outputs": [],
      "payable": false,
      "stateMutability": "nonpayable",
      "type": "function"
    }
  ],
  "bytecode": "0x60806040526000600260146101000a81548160ff021916908315150217905550610640600355336000806101000a81548173ffffffffffffffffffffffffffffffffffffffff021916908373ffffffffffffffffffffffffffffffffffffffff160217905550600354670de0b6b3a76400008161007857fe5b046007819055506145668061008e6000396000f3fe6080604052600436106101b75760003560e01c80635c975abb116100ec578063b37bbdda1161008a578063ea40a0b611610064578063ea40a0b614610a53578063ee4e1b5314610b0f578063f14faf6f14610b4a578063f7b188a514610b78576101b7565b8063b37bbdda146108c4578063e27883fb146108ef578063e71d5665146109c7576101b7565b8063937e09b1116100c6578063937e09b1146107d2578063aacea0c9146107fd578063ac369bb514610842578063b047fb501461086d576101b7565b80635c975abb146107515780636b5ca27d146107805780638456cb59146107bb576101b7565b8063278ecde1116101595780633020580b116101335780633020580b1461051757806345598b4a146105f35780634ca147031461062e5780634e0a337914610700576101b7565b8063278ecde11461043a57806327d7874c146104755780632ba73c15146104c6576101b7565b80630519ce79116101955780630519ce791461024a5780630a0f8168146102a15780630b961e48146102f8578063141961bc14610323576101b7565b80630254acb6146101b957806302932f56146101e4578063034d09da1461020f575b005b3480156101c557600080fd5b506101ce610b8f565b6040518082815260200191505060405180910390f35b3480156101f057600080fd5b506101f9610b95565b6040518082815260200191505060405180910390f35b34801561021b57600080fd5b506102486004803603602081101561023257600080fd5b8101908080359060200190929190505050610b9b565b005b34801561025657600080fd5b5061025f610e6c565b604051808273ffffffffffffffffffffffffffffffffffffffff1673ffffffffffffffffffffffffffffffffffffffff16815260200191505060405180910390f35b3480156102ad57600080fd5b506102b6610e92565b604051808273ffffffffffffffffffffffffffffffffffffffff1673ffffffffffffffffffffffffffffffffffffffff16815260200191505060405180910390f35b34801561030457600080fd5b5061030d610eb7565b6040518082815260200191505060405180910390f35b34801561032f57600080fd5b5061035c6004803603602081101561034657600080fd5b8101908080359060200190929190505050610ebd565b60405180806020018981526020018881526020018781526020018673ffffffffffffffffffffffffffffffffffffffff1673ffffffffffffffffffffffffffffffffffffffff1681526020018581526020018481526020018360ff1660ff16815260200182810382528a818151815260200191508051906020019080838360005b838110156103f85780820151818401526020810190506103dd565b50505050905090810190601f1680156104255780820380516001836020036101000a031916815260200191505b50995050505050505050505060405180910390f35b34801561044657600080fd5b506104736004803603602081101561045d57600080fd5b8101908080359060200190929190505050610fd7565b005b34801561048157600080fd5b506104c46004803603602081101561049857600080fd5b81019080803573ffffffffffffffffffffffffffffffffffffffff169060200190929190505050611340565b005b3480156104d257600080fd5b50610515600480360360208110156104e957600080fd5b81019080803573ffffffffffffffffffffffffffffffffffffffff16906020019092919050505061147f565b005b34801561052357600080fd5b506105f16004803603606081101561053a57600080fd5b810190808035906020019064010000000081111561055757600080fd5b82018360208201111561056957600080fd5b8035906020019184600183028401116401000000008311171561058b57600080fd5b91908080601f016020809104026020016040519081016040528093929190818152602001838380828437600081840152601f19601f82011690508083019250505050505050919291929080359060200190929190803590602001909291905050506115bf565b005b3480156105ff57600080fd5b5061062c6004803603602081101561061657600080fd5b81019080803590602001909291905050506119bf565b005b34801561063a57600080fd5b506106fe6004803603604081101561065157600080fd5b81019080803590602001909291908035906020019064010000000081111561067857600080fd5b82018360208201111561068a57600080fd5b803590602001918460018302840111640100000000831117156106ac57600080fd5b91908080601f016020809104026020016040519081016040528093929190818152602001838380828437600081840152601f19601f820116905080830192505050505050509192919290505050611ca3565b005b34801561070c57600080fd5b5061074f6004803603602081101561072357600080fd5b81019080803573ffffffffffffffffffffffffffffffffffffffff169060200190929190505050611ea7565b005b34801561075d57600080fd5b50610766611fe7565b604051808215151515815260200191505060405180910390f35b34801561078c57600080fd5b506107b9600480360360208110156107a357600080fd5b8101908080359060200190929190505050611ffa565b005b3480156107c757600080fd5b506107d06125bc565b005b3480156107de57600080fd5b506107e76127b1565b6040518082815260200191505060405180910390f35b34801561080957600080fd5b506108406004803603604081101561082057600080fd5b8101908080359060200190929190803590602001909291905050506127b7565b005b34801561084e57600080fd5b50610857612aad565b6040518082815260200191505060405180910390f35b34801561087957600080fd5b50610882612ab3565b604051808273ffffffffffffffffffffffffffffffffffffffff1673ffffffffffffffffffffffffffffffffffffffff16815260200191505060405180910390f35b3480156108d057600080fd5b506108d9612ad9565b6040518082815260200191505060405180910390f35b3480156108fb57600080fd5b506109286004803603602081101561091257600080fd5b8101908080359060200190929190505050612adf565b604051808060200180602001838103835285818151815260200191508051906020019060200280838360005b8381101561096f578082015181840152602081019050610954565b50505050905001838103825284818151815260200191508051906020019060200280838360005b838110156109b1578082015181840152602081019050610996565b5050505090500194505050505060405180910390f35b3480156109d357600080fd5b50610a0a600480360360408110156109ea57600080fd5b810190808035906020019092919080359060200190929190505050612f63565b604051808373ffffffffffffffffffffffffffffffffffffffff1673ffffffffffffffffffffffffffffffffffffffff1681526020018281526020019250505060405180910390f35b348015610a5f57600080fd5b50610a8c60048036036020811015610a7657600080fd5b81019080803590602001909291905050506134d4565b604051808573ffffffffffffffffffffffffffffffffffffffff1673ffffffffffffffffffffffffffffffffffffffff1681526020018473ffffffffffffffffffffffffffffffffffffffff1673ffffffffffffffffffffffffffffffffffffffff16815260200183815260200182815260200194505050505060405180910390f35b348015610b1b57600080fd5b50610b4860048036036020811015610b3257600080fd5b8101908080359060200190929190505050613551565b005b610b7660048036036020811015610b6057600080fd5b8101908080359060200190929190505050613834565b005b348015610b8457600080fd5b50610b8d613dd0565b005b60065481565b60055481565b600260009054906101000a900473ffffffffffffffffffffffffffffffffffffffff1673ffffffffffffffffffffffffffffffffffffffff163373ffffffffffffffffffffffffffffffffffffffff1614610c5e576040517f08c379a000000000000000000000000000000000000000000000000000000000815260040180806020018281038252601b8152602001807fe58faae69c89434f4fe883bde4bdbfe794a8e6ada4e58a9fe883bd000000000081525060200191505060405180910390fd5b6004805490508110610cd8576040517f08c379a00000000000000000000000000000000000000000000000000000000081526004018080602001828103825260188152602001807fe9a1b9e79baee7b4a2e5bc95e8b685e587bae88c83e59bb4000000000000000081525060200191505060405180910390fd5b600060048281548110610ce757fe5b90600052602060002090600c020160070160009054906101000a900460ff1660ff1614610d7c576040517f08c379a000000000000000000000000000000000000000000000000000000000815260040180806020018281038252601b8152602001807fe9a1b9e79baee4b88de5a484e4ba8ee5aea1e6a0b8e69c9fe997b4000000000081525060200191505060405180910390fd5b610d87816001613f31565b7f756fb7f4e004cefc04816f7f03fb3f31336765556324e18968947ddb7ae01a028160048381548110610db657fe5b90600052602060002090600c020160040160009054906101000a900473ffffffffffffffffffffffffffffffffffffffff16604051808381526020018273ffffffffffffffffffffffffffffffffffffffff1673ffffffffffffffffffffffffffffffffffffffff168152602001806020018281038252600c8152602001807fe68b92e7bb9de9a1b9e79bae0000000000000000000000000000000000000000815250602001935050505060405180910390a150565b600160009054906101000a900473ffffffffffffffffffffffffffffffffffffffff1681565b6000809054906101000a900473ffffffffffffffffffffffffffffffffffffffff1681565b60035481565b60048181548110610eca57fe5b90600052602060002090600c0201600091509050806000018054600181600116156101000203166002900480601f016020809104026020016040519081016040528092919081815260200182805460018160011615610100020316600290048015610f765780601f10610f4b57610100808354040283529160200191610f76565b820191906000526020600020905b815481529060010190602001808311610f5957829003601f168201915b5050505050908060010154908060020154908060030154908060040160009054906101000a900473ffffffffffffffffffffffffffffffffffffffff16908060050154908060060154908060070160009054906101000a900460ff16905088565b6004805490508110611051576040517f08c379a00000000000000000000000000000000000000000000000000000000081526004018080602001828103825260188152602001807fe9a1b9e79baee7b4a2e5bc95e8b685e587bae88c83e59bb4000000000000000081525060200191505060405180910390fd5b60036004828154811061106057fe5b90600052602060002090600c020160070160009054906101000a900460ff1660ff16146110f5576040517f08c379a000000000000000000000000000000000000000000000000000000000815260040180806020018281038252601b8152602001807fe9a1b9e79baee6b2a1e69c89e8a2abe68f90e5898de7bb88e6ada2000000000081525060200191505060405180910390fd5b60006004828154811061110457fe5b90600052602060002090600c0201905060008160080160003373ffffffffffffffffffffffffffffffffffffffff1673ffffffffffffffffffffffffffffffffffffffff168152602001908152602001600020549050600081116111d0576040517f08c379a000000000000000000000000000000000000000000000000000000000815260040180806020018281038252601b8152602001807fe4bda0e6b2a1e4b8bae8afa5e9a1b9e79baee68d90e8bf87e6acbe000000000081525060200191505060405180910390fd5b600082600a0160018303815481106111e457fe5b90600052602060002001549050600083600a01600184038154811061120557fe5b90600052602060002001819055503373ffffffffffffffffffffffffffffffffffffffff166108fc600354670de0b6b3a764000084028161124257fe5b049081150290604051600060405180830381858888f1935050505015801561126e573d6000803e3d6000fd5b507f82c4addd7df9bb5b801dcdeb0a67eb8bda3d9e213af78965d584b0be8cb636608360040160009054906101000a900473ffffffffffffffffffffffffffffffffffffffff16338342604051808573ffffffffffffffffffffffffffffffffffffffff1673ffffffffffffffffffffffffffffffffffffffff1681526020018473ffffffffffffffffffffffffffffffffffffffff1673ffffffffffffffffffffffffffffffffffffffff16815260200183815260200182815260200194505050505060405180910390a150505050565b6000809054906101000a900473ffffffffffffffffffffffffffffffffffffffff1673ffffffffffffffffffffffffffffffffffffffff163373ffffffffffffffffffffffffffffffffffffffff1614611402576040517f08c379a000000000000000000000000000000000000000000000000000000000815260040180806020018281038252601b8152602001807fe58faae69c8943454fe883bde4bdbfe794a8e6ada4e58a9fe883bd000000000081525060200191505060405180910390fd5b600073ffffffffffffffffffffffffffffffffffffffff168173ffffffffffffffffffffffffffffffffffffffff16141561143c57600080fd5b806000806101000a81548173ffffffffffffffffffffffffffffffffffffffff021916908373ffffffffffffffffffffffffffffffffffffffff16021790555050565b6000809054906101000a900473ffffffffffffffffffffffffffffffffffffffff1673ffffffffffffffffffffffffffffffffffffffff163373ffffffffffffffffffffffffffffffffffffffff1614611541576040517f08c379a000000000000000000000000000000000000000000000000000000000815260040180806020018281038252601b8152602001807fe58faae69c8943454fe883bde4bdbfe794a8e6ada4e58a9fe883bd000000000081525060200191505060405180910390fd5b600073ffffffffffffffffffffffffffffffffffffffff168173ffffffffffffffffffffffffffffffffffffffff16141561157b57600080fd5b80600260006101000a81548173ffffffffffffffffffffffffffffffffffffffff021916908373ffffffffffffffffffffffffffffffffffffffff16021790555050565b6000809054906101000a900473ffffffffffffffffffffffffffffffffffffffff1673ffffffffffffffffffffffffffffffffffffffff163373ffffffffffffffffffffffffffffffffffffffff161415801561166a5750600160009054906101000a900473ffffffffffffffffffffffffffffffffffffffff1673ffffffffffffffffffffffffffffffffffffffff163373ffffffffffffffffffffffffffffffffffffffff1614155b80156116c45750600260009054906101000a900473ffffffffffffffffffffffffffffffffffffffff1673ffffffffffffffffffffffffffffffffffffffff163373ffffffffffffffffffffffffffffffffffffffff1614155b611736576040517f08c379a000000000000000000000000000000000000000000000000000000000815260040180806020018281038252601e8152602001807fe7aea1e79086e4babae59198e4b88de883bde5889be5bbbae9a1b9e79bae000081525060200191505060405180910390fd5b6060806060611743614133565b604051806101600160405280888152602001878152602001868152602001603c8702420181526020013373ffffffffffffffffffffffffffffffffffffffff1681526020016000815260200160008152602001600060ff1681526020018581526020018481526020018381525090506004819080600181540180825580915050906001820390600052602060002090600c02016000909192909190915060008201518160000190805190602001906117fc9291906141a6565b5060208201518160010155604082015181600201556060820151816003015560808201518160040160006101000a81548173ffffffffffffffffffffffffffffffffffffffff021916908373ffffffffffffffffffffffffffffffffffffffff16021790555060a0820151816005015560c0820151816006015560e08201518160070160006101000a81548160ff021916908360ff1602179055506101008201518160090190805190602001906118b4929190614226565b5061012082015181600a0190805190602001906118d29291906142b0565b5061014082015181600b0190805190602001906118f09291906142fd565b505050506005600081548092919060010191905055507f756fb7f4e004cefc04816f7f03fb3f31336765556324e18968947ddb7ae01a026001600480549050038260800151604051808381526020018273ffffffffffffffffffffffffffffffffffffffff1673ffffffffffffffffffffffffffffffffffffffff168152602001806020018281038252600c8152602001807fe5889be5bbbae9a1b9e79bae0000000000000000000000000000000000000000815250602001935050505060405180910390a150505050505050565b600260009054906101000a900473ffffffffffffffffffffffffffffffffffffffff1673ffffffffffffffffffffffffffffffffffffffff163373ffffffffffffffffffffffffffffffffffffffff1614611a82576040517f08c379a000000000000000000000000000000000000000000000000000000000815260040180806020018281038252601b8152602001807fe58faae69c89434f4fe883bde4bdbfe794a8e6ada4e58a9fe883bd000000000081525060200191505060405180910390fd5b6004805490508110611afc576040517f08c379a00000000000000000000000000000000000000000000000000000000081526004018080602001828103825260188152602001807fe9a1b9e79baee7b4a2e5bc95e8b685e587bae88c83e59bb4000000000000000081525060200191505060405180910390fd5b600260048281548110611b0b57fe5b90600052602060002090600c020160070160009054906101000a900460ff1660ff1614611ba0576040517f08c379a000000000000000000000000000000000000000000000000000000000815260040180806020018281038252601b8152602001807fe9a1b9e79baee4b88de5a484e4ba8ee8bf90e8a18ce69c9fe997b4000000000081525060200191505060405180910390fd5b611bab816003613f31565b600660008154809291906001900391905055507f756fb7f4e004cefc04816f7f03fb3f31336765556324e18968947ddb7ae01a028160048381548110611bed57fe5b90600052602060002090600c020160040160009054906101000a900473ffffffffffffffffffffffffffffffffffffffff16604051808381526020018273ffffffffffffffffffffffffffffffffffffffff1673ffffffffffffffffffffffffffffffffffffffff16815260200180602001828103825260128152602001807fe6848fe5a496e7bb88e6ada2e9a1b9e79bae0000000000000000000000000000815250602001935050505060405180910390a150565b600260009054906101000a900473ffffffffffffffffffffffffffffffffffffffff1673ffffffffffffffffffffffffffffffffffffffff163373ffffffffffffffffffffffffffffffffffffffff1614611d66576040517f08c379a000000000000000000000000000000000000000000000000000000000815260040180806020018281038252601b8152602001807fe58faae69c89434f4fe883bde4bdbfe794a8e6ada4e58a9fe883bd000000000081525060200191505060405180910390fd5b60048281548110611d7357fe5b90600052602060002090600c0201600b01819080600181540180825580915050906001820390600052602060002001600090919290919091509080519060200190611dbf92919061435d565b50507f756fb7f4e004cefc04816f7f03fb3f31336765556324e18968947ddb7ae01a028260048481548110611df057fe5b90600052602060002090600c020160040160009054906101000a900473ffffffffffffffffffffffffffffffffffffffff16604051808381526020018273ffffffffffffffffffffffffffffffffffffffff1673ffffffffffffffffffffffffffffffffffffffff16815260200180602001828103825260128152602001807fe69bb4e696b0e9a1b9e79baee8bf9be5b1950000000000000000000000000000815250602001935050505060405180910390a15050565b6000809054906101000a900473ffffffffffffffffffffffffffffffffffffffff1673ffffffffffffffffffffffffffffffffffffffff163373ffffffffffffffffffffffffffffffffffffffff1614611f69576040517f08c379a000000000000000000000000000000000000000000000000000000000815260040180806020018281038252601b8152602001807fe58faae69c8943454fe883bde4bdbfe794a8e6ada4e58a9fe883bd000000000081525060200191505060405180910390fd5b600073ffffffffffffffffffffffffffffffffffffffff168173ffffffffffffffffffffffffffffffffffffffff161415611fa357600080fd5b80600160006101000a81548173ffffffffffffffffffffffffffffffffffffffff021916908373ffffffffffffffffffffffffffffffffffffffff16021790555050565b600260149054906101000a900460ff1681565b600260009054906101000a900473ffffffffffffffffffffffffffffffffffffffff1673ffffffffffffffffffffffffffffffffffffffff163373ffffffffffffffffffffffffffffffffffffffff16146120bd576040517f08c379a000000000000000000000000000000000000000000000000000000000815260040180806020018281038252601b8152602001807fe58faae69c89434f4fe883bde4bdbfe794a8e6ada4e58a9fe883bd000000000081525060200191505060405180910390fd5b6004805490508110612137576040517f08c379a00000000000000000000000000000000000000000000000000000000081526004018080602001828103825260188152602001807fe9a1b9e79baee7b4a2e5bc95e8b685e587bae88c83e59bb4000000000000000081525060200191505060405180910390fd5b60026004828154811061214657fe5b90600052602060002090600c020160070160009054906101000a900460ff1660ff16146121db576040517f08c379a000000000000000000000000000000000000000000000000000000000815260040180806020018281038252601b8152602001807fe9a1b9e79baee4b88de5a484e4ba8ee8bf90e8a18ce69c9fe997b4000000000081525060200191505060405180910390fd5b600481815481106121e857fe5b90600052602060002090600c020160030154421161226e576040517f08c379a000000000000000000000000000000000000000000000000000000000815260040180806020018281038252601b8152602001807fe9a1b9e79baee8bf98e69caae588b0e688aae6ada2e697b6e997b4000000000081525060200191505060405180910390fd5b6004818154811061227b57fe5b90600052602060002090600c0201600101546004828154811061229a57fe5b90600052602060002090600c0201600501541015612320576040517f08c379a000000000000000000000000000000000000000000000000000000000815260040180806020018281038252601b8152602001807fe8bf98e69caae7adb9e99b86e588b0e8b6b3e5a49fe8b584e98791000000000081525060200191505060405180910390fd5b60006004828154811061232f57fe5b90600052602060002090600c020160050154905060006004838154811061235257fe5b90600052602060002090600c02016005018190555060006004838154811061237657fe5b90600052602060002090600c020160040160009054906101000a900473ffffffffffffffffffffffffffffffffffffffff1690508073ffffffffffffffffffffffffffffffffffffffff166108fc600354670de0b6b3a76400008502816123d957fe5b049081150290604051600060405180830381858888f19350505050158015612405573d6000803e3d6000fd5b507faa335b8a005b7b1c3ca656e89fff4944ee59e2c3491123f13bc0b5dabc4229f36004848154811061243457fe5b90600052602060002090600c020160040160009054906101000a900473ffffffffffffffffffffffffffffffffffffffff168342604051808473ffffffffffffffffffffffffffffffffffffffff1673ffffffffffffffffffffffffffffffffffffffff168152602001838152602001828152602001935050505060405180910390a16124c2836004613f31565b600660008154809291906001900391905055507f756fb7f4e004cefc04816f7f03fb3f31336765556324e18968947ddb7ae01a02836004858154811061250457fe5b90600052602060002090600c020160040160009054906101000a900473ffffffffffffffffffffffffffffffffffffffff16604051808381526020018273ffffffffffffffffffffffffffffffffffffffff1673ffffffffffffffffffffffffffffffffffffffff16815260200180602001828103825260128152602001807fe9a1b9e79baee9a1bae588a9e5ae8ce688900000000000000000000000000000815250602001935050505060405180910390a1505050565b600260009054906101000a900473ffffffffffffffffffffffffffffffffffffffff1673ffffffffffffffffffffffffffffffffffffffff163373ffffffffffffffffffffffffffffffffffffffff16148061266457506000809054906101000a900473ffffffffffffffffffffffffffffffffffffffff1673ffffffffffffffffffffffffffffffffffffffff163373ffffffffffffffffffffffffffffffffffffffff16145b806126bc5750600160009054906101000a900473ffffffffffffffffffffffffffffffffffffffff1673ffffffffffffffffffffffffffffffffffffffff163373ffffffffffffffffffffffffffffffffffffffff16145b612711576040517f08c379a000000000000000000000000000000000000000000000000000000000815260040180806020018281038252602481526020018061450e6024913960400191505060405180910390fd5b600260149054906101000a900460ff1615612794576040517f08c379a00000000000000000000000000000000000000000000000000000000081526004018080602001828103825260128152602001807fe58d8fe8aeaee5b7b2e7bb8fe69a82e5819c000000000000000000000000000081525060200191505060405180910390fd5b6001600260146101000a81548160ff021916908315150217905550565b60075481565b600260009054906101000a900473ffffffffffffffffffffffffffffffffffffffff1673ffffffffffffffffffffffffffffffffffffffff163373ffffffffffffffffffffffffffffffffffffffff161461287a576040517f08c379a000000000000000000000000000000000000000000000000000000000815260040180806020018281038252601b8152602001807fe58faae69c89434f4fe883bde4bdbfe794a8e6ada4e58a9fe883bd000000000081525060200191505060405180910390fd5b60048054905082106128f4576040517f08c379a00000000000000000000000000000000000000000000000000000000081526004018080602001828103825260188152602001807fe9a1b9e79baee7b4a2e5bc95e8b685e587bae88c83e59bb4000000000000000081525060200191505060405180910390fd5b60026004838154811061290357fe5b90600052602060002090600c020160070160009054906101000a900460ff1660ff1614612998576040517f08c379a000000000000000000000000000000000000000000000000000000000815260040180806020018281038252601b8152602001807fe9a1b9e79baee4b88de5a484e4ba8ee8bf90e8a18ce69c9fe997b4000000000081525060200191505060405180910390fd5b603c8102600483815481106129a957fe5b90600052602060002090600c0201600301600082825401925050819055507f756fb7f4e004cefc04816f7f03fb3f31336765556324e18968947ddb7ae01a0282600484815481106129f657fe5b90600052602060002090600c020160040160009054906101000a900473ffffffffffffffffffffffffffffffffffffffff16604051808381526020018273ffffffffffffffffffffffffffffffffffffffff1673ffffffffffffffffffffffffffffffffffffffff168152602001806020018281038252600c8152602001807fe5bbb6e8bf9fe9a1b9e79bae0000000000000000000000000000000000000000815250602001935050505060405180910390a15050565b600a5481565b600260009054906101000a900473ffffffffffffffffffffffffffffffffffffffff1681565b60095481565b6060806004805490508310612b5c576040517f08c379a00000000000000000000000000000000000000000000000000000000081526004018080602001828103825260188152602001807fe9a1b9e79baee7b4a2e5bc95e8b685e587bae88c83e59bb4000000000000000081525060200191505060405180910390fd5b600260048481548110612b6b57fe5b90600052602060002090600c020160070160009054906101000a900460ff1660ff1614612c00576040517f08c379a000000000000000000000000000000000000000000000000000000000815260040180806020018281038252601b8152602001807fe9a1b9e79baee4b88de5a484e4ba8ee8bf90e8a18ce69c9fe997b4000000000081525060200191505060405180910390fd5b612c08614133565b60048481548110612c1557fe5b90600052602060002090600c020160405180610160016040529081600082018054600181600116156101000203166002900480601f016020809104026020016040519081016040528092919081815260200182805460018160011615610100020316600290048015612cc85780601f10612c9d57610100808354040283529160200191612cc8565b820191906000526020600020905b815481529060010190602001808311612cab57829003601f168201915b505050505081526020016001820154815260200160028201548152602001600382015481526020016004820160009054906101000a900473ffffffffffffffffffffffffffffffffffffffff1673ffffffffffffffffffffffffffffffffffffffff1673ffffffffffffffffffffffffffffffffffffffff16815260200160058201548152602001600682015481526020016007820160009054906101000a900460ff1660ff1660ff16815260200160098201805480602002602001604051908101604052809291908181526020018280548015612dfb57602002820191906000526020600020905b8160009054906101000a900473ffffffffffffffffffffffffffffffffffffffff1673ffffffffffffffffffffffffffffffffffffffff1681526020019060010190808311612db1575b50505050508152602001600a8201805480602002602001604051908101604052809291908181526020018280548015612e5357602002820191906000526020600020905b815481526020019060010190808311612e3f575b50505050508152602001600b8201805480602002602001604051908101604052809291908181526020016000905b82821015612f3d578382906000526020600020018054600181600116156101000203166002900480601f016020809104026020016040519081016040528092919081815260200182805460018160011615610100020316600290048015612f295780601f10612efe57610100808354040283529160200191612f29565b820191906000526020600020905b815481529060010190602001808311612f0c57829003601f168201915b505050505081526020019060010190612e81565b505050508152505090508061010001518161012001518191508090509250925050915091565b6000806004805490508410612fe0576040517f08c379a00000000000000000000000000000000000000000000000000000000081526004018080602001828103825260188152602001807fe9a1b9e79baee7b4a2e5bc95e8b685e587bae88c83e59bb4000000000000000081525060200191505060405180910390fd5b600260048581548110612fef57fe5b90600052602060002090600c020160070160009054906101000a900460ff1660ff16148061304a5750600480858154811061302657fe5b90600052602060002090600c020160070160009054906101000a900460ff1660ff16145b6130bc576040517f08c379a000000000000000000000000000000000000000000000000000000000815260040180806020018281038252600c8152602001807fe9a1b9e79baee5bc82e5b8b8000000000000000000000000000000000000000081525060200191505060405180910390fd5b600484815481106130c957fe5b90600052602060002090600c020160060154831061314f576040517f08c379a000000000000000000000000000000000000000000000000000000000815260040180806020018281038252601b8152602001807fe68d90e8b5a0e88085e7b4a2e5bc95e8b685e587bae88c83e59bb4000000000081525060200191505060405180910390fd5b613157614133565b6004858154811061316457fe5b90600052602060002090600c020160405180610160016040529081600082018054600181600116156101000203166002900480601f0160208091040260200160405190810160405280929190818152602001828054600181600116156101000203166002900480156132175780601f106131ec57610100808354040283529160200191613217565b820191906000526020600020905b8154815290600101906020018083116131fa57829003601f168201915b505050505081526020016001820154815260200160028201548152602001600382015481526020016004820160009054906101000a900473ffffffffffffffffffffffffffffffffffffffff1673ffffffffffffffffffffffffffffffffffffffff1673ffffffffffffffffffffffffffffffffffffffff16815260200160058201548152602001600682015481526020016007820160009054906101000a900460ff1660ff1660ff1681526020016009820180548060200260200160405190810160405280929190818152602001828054801561334a57602002820191906000526020600020905b8160009054906101000a900473ffffffffffffffffffffffffffffffffffffffff1673ffffffffffffffffffffffffffffffffffffffff1681526020019060010190808311613300575b50505050508152602001600a82018054806020026020016040519081016040528092919081815260200182805480156133a257602002820191906000526020600020905b81548152602001906001019080831161338e575b50505050508152602001600b8201805480602002602001604051908101604052809291908181526020016000905b8282101561348c578382906000526020600020018054600181600116156101000203166002900480601f0160208091040260200160405190810160405280929190818152602001828054600181600116156101000203166002900480156134785780601f1061344d57610100808354040283529160200191613478565b820191906000526020600020905b81548152906001019060200180831161345b57829003601f168201915b5050505050815260200190600101906133d0565b5050505081525050905080610100015184815181106134a757fe5b602002602001015181610120015185815181106134c057fe5b602002602001015192509250509250929050565b600881815481106134e157fe5b90600052602060002090600402016000915090508060000160009054906101000a900473ffffffffffffffffffffffffffffffffffffffff16908060010160009054906101000a900473ffffffffffffffffffffffffffffffffffffffff16908060020154908060030154905084565b600260009054906101000a900473ffffffffffffffffffffffffffffffffffffffff1673ffffffffffffffffffffffffffffffffffffffff163373ffffffffffffffffffffffffffffffffffffffff1614613614576040517f08c379a000000000000000000000000000000000000000000000000000000000815260040180806020018281038252601b8152602001807fe58faae69c89434f4fe883bde4bdbfe794a8e6ada4e58a9fe883bd000000000081525060200191505060405180910390fd5b600480549050811061368e576040517f08c379a00000000000000000000000000000000000000000000000000000000081526004018080602001828103825260188152602001807fe9a1b9e79baee7b4a2e5bc95e8b685e587bae88c83e59bb4000000000000000081525060200191505060405180910390fd5b60006004828154811061369d57fe5b90600052602060002090600c020160070160009054906101000a900460ff1660ff1614613732576040517f08c379a000000000000000000000000000000000000000000000000000000000815260040180806020018281038252601b8152602001807fe9a1b9e79baee4b88de5a484e4ba8ee5aea1e6a0b8e69c9fe997b4000000000081525060200191505060405180910390fd5b61373d816002613f31565b6006600081548092919060010191905055507f756fb7f4e004cefc04816f7f03fb3f31336765556324e18968947ddb7ae01a02816004838154811061377e57fe5b90600052602060002090600c020160040160009054906101000a900473ffffffffffffffffffffffffffffffffffffffff16604051808381526020018273ffffffffffffffffffffffffffffffffffffffff1673ffffffffffffffffffffffffffffffffffffffff168152602001806020018281038252600c8152602001807fe58f91e5b883e9a1b9e79bae0000000000000000000000000000000000000000815250602001935050505060405180910390a150565b60048054905081106138ae576040517f08c379a00000000000000000000000000000000000000000000000000000000081526004018080602001828103825260188152602001807fe9a1b9e79baee7b4a2e5bc95e8b685e587bae88c83e59bb4000000000000000081525060200191505060405180910390fd5b6002600482815481106138bd57fe5b90600052602060002090600c020160070160009054906101000a900460ff1660ff1614613952576040517f08c379a000000000000000000000000000000000000000000000000000000000815260040180806020018281038252601b8152602001807fe9a1b9e79baee4b88de5a484e4ba8ee8bf90e8a18ce69c9fe997b4000000000081525060200191505060405180910390fd5b6007543410156139ca576040517f08c379a00000000000000000000000000000000000000000000000000000000081526004018080602001828103825260198152602001807fe68d90e6acbee4b88de5be97e4bd8ee4ba8e31e59d97e992b10000000000000081525060200191505060405180910390fd5b6000600482815481106139d957fe5b90600052602060002090600c0201905060003390506000670de0b6b3a7640000346003540281613a0557fe5b04905060008360080160008473ffffffffffffffffffffffffffffffffffffffff1673ffffffffffffffffffffffffffffffffffffffff1681526020019081526020016000205490506000811115613a86578184600a016001830381548110613a6a57fe5b9060005260206000200160008282540192505081905550613b7b565b8360060160008154809291906001019190505550836009018390806001815401808255809150509060018203906000526020600020016000909192909190916101000a81548173ffffffffffffffffffffffffffffffffffffffff021916908373ffffffffffffffffffffffffffffffffffffffff1602179055505083600a0182908060018154018082558091505090600182039060005260206000200160009091929091909150555083600601548460080160008573ffffffffffffffffffffffffffffffffffffffff1673ffffffffffffffffffffffffffffffffffffffff168152602001908152602001600020819055505b818460050160008282540192505081905550613b956143dd565b60405180608001604052808573ffffffffffffffffffffffffffffffffffffffff1681526020018660040160009054906101000a900473ffffffffffffffffffffffffffffffffffffffff1673ffffffffffffffffffffffffffffffffffffffff1681526020018481526020014281525090506008819080600181540180825580915050906001820390600052602060002090600402016000909192909190915060008201518160000160006101000a81548173ffffffffffffffffffffffffffffffffffffffff021916908373ffffffffffffffffffffffffffffffffffffffff16021790555060208201518160010160006101000a81548173ffffffffffffffffffffffffffffffffffffffff021916908373ffffffffffffffffffffffffffffffffffffffff160217905550604082015181600201556060820151816003015550505060096000815480929190600101919050555082600a600082825401925050819055507f5d4fda7240a3bcd7170980bb222c3df7a119c03f3fe98a939ac6e85948b584a0338660040160009054906101000a900473ffffffffffffffffffffffffffffffffffffffff168542604051808573ffffffffffffffffffffffffffffffffffffffff1673ffffffffffffffffffffffffffffffffffffffff1681526020018473ffffffffffffffffffffffffffffffffffffffff1673ffffffffffffffffffffffffffffffffffffffff16815260200183815260200182815260200194505050505060405180910390a1505050505050565b6000809054906101000a900473ffffffffffffffffffffffffffffffffffffffff1673ffffffffffffffffffffffffffffffffffffffff163373ffffffffffffffffffffffffffffffffffffffff1614613e92576040517f08c379a000000000000000000000000000000000000000000000000000000000815260040180806020018281038252601b8152602001807fe58faae69c8943454fe883bde4bdbfe794a8e6ada4e58a9fe883bd000000000081525060200191505060405180910390fd5b600260149054906101000a900460ff16613f14576040517f08c379a00000000000000000000000000000000000000000000000000000000081526004018080602001828103825260128152602001807fe58d8fe8aeaee5b09ae69caae69a82e5819c000000000000000000000000000081525060200191505060405180910390fd5b6000600260146101000a81548160ff021916908315150217905550565b600260009054906101000a900473ffffffffffffffffffffffffffffffffffffffff1673ffffffffffffffffffffffffffffffffffffffff163373ffffffffffffffffffffffffffffffffffffffff1614613ff4576040517f08c379a000000000000000000000000000000000000000000000000000000000815260040180806020018281038252601b8152602001807fe58faae69c89434f4fe883bde4bdbfe794a8e6ada4e58a9fe883bd000000000081525060200191505060405180910390fd5b600480549050821061406e576040517f08c379a00000000000000000000000000000000000000000000000000000000081526004018080602001828103825260188152602001807fe9a1b9e79baee7b4a2e5bc95e8b685e587bae88c83e59bb4000000000000000081525060200191505060405180910390fd5b60008160ff1610158015614086575060048160ff1611155b6140f8576040517f08c379a00000000000000000000000000000000000000000000000000000000081526004018080602001828103825260158152602001807fe78ab6e68081e58f98e9878fe4b88de59088e79086000000000000000000000081525060200191505060405180910390fd5b806004838154811061410657fe5b90600052602060002090600c020160070160006101000a81548160ff021916908360ff1602179055505050565b60405180610160016040528060608152602001600081526020016000815260200160008152602001600073ffffffffffffffffffffffffffffffffffffffff1681526020016000815260200160008152602001600060ff1681526020016060815260200160608152602001606081525090565b828054600181600116156101000203166002900490600052602060002090601f016020900481019282601f106141e757805160ff1916838001178555614215565b82800160010185558215614215579182015b828111156142145782518255916020019190600101906141f9565b5b5090506142229190614431565b5090565b82805482825590600052602060002090810192821561429f579160200282015b8281111561429e5782518260006101000a81548173ffffffffffffffffffffffffffffffffffffffff021916908373ffffffffffffffffffffffffffffffffffffffff16021790555091602001919060010190614246565b5b5090506142ac9190614456565b5090565b8280548282559060005260206000209081019282156142ec579160200282015b828111156142eb5782518255916020019190600101906142d0565b5b5090506142f99190614431565b5090565b82805482825590600052602060002090810192821561434c579160200282015b8281111561434b57825182908051906020019061433b9291906141a6565b509160200191906001019061431d565b5b5090506143599190614499565b5090565b828054600181600116156101000203166002900490600052602060002090601f016020900481019282601f1061439e57805160ff19168380011785556143cc565b828001600101855582156143cc579182015b828111156143cb5782518255916020019190600101906143b0565b5b5090506143d99190614431565b5090565b6040518060800160405280600073ffffffffffffffffffffffffffffffffffffffff168152602001600073ffffffffffffffffffffffffffffffffffffffff16815260200160008152602001600081525090565b61445391905b8082111561444f576000816000905550600101614437565b5090565b90565b61449691905b8082111561449257600081816101000a81549073ffffffffffffffffffffffffffffffffffffffff02191690555060010161445c565b5090565b90565b6144c291905b808211156144be57600081816144b591906144c5565b5060010161449f565b5090565b90565b50805460018160011615610100020316600290046000825580601f106144eb575061450a565b601f0160209004906000526020600020908101906145099190614431565b5b5056fee58faae69c89e6a0b8e5bf83e8a792e889b2e883bde4bdbfe794a8e6ada4e58a9fe883bda265627a7a72315820c75ca385753e4cf6d866daf87406d35bab435f03606da103fb17ddd6c7f3b46c64736f6c63430005100032",
  "source": "pragma solidity ^0.5.16;\n\n/// @title AccessControl\n/// @author yang\n/// @dev \n\ncontract AccessControl {\n    /**\n     * \n     * CEO\n     *CFO\n     *COO\n     */\n\n    // \n    address public ceoAddress;\n    address public cfoAddress;\n    address public cooAddress;\n\n    // \n    bool public paused = false;\n\n    // \n    event ContractUpgrade(address newContract);\n\n    // CEO\n    modifier onlyCEO() {\n        require(msg.sender == ceoAddress,\"CEO\");\n        _;\n    }\n\n    // CFO\n    modifier onlyCFO() {\n        require(msg.sender == cfoAddress,\"CFO\");\n        _;\n    }\n\n    // COO\n    modifier onlyCOO() {\n        require(msg.sender == cooAddress,\"COO\");\n        _;\n    }\n\n    // \n    modifier onlyCLevel() {\n        require(\n            msg.sender == cooAddress ||\n            msg.sender == ceoAddress ||\n            msg.sender == cfoAddress,\"\");\n            _;\n    }\n\n    // \n    modifier whenNotPaused() {\n        require(!paused,\"\");\n        _;\n    }\n\n    // \n    modifier whenPaused {\n        require(paused,\"\");\n        _;\n    }\n\n    // CEO\n   constructor() public {\n       ceoAddress = msg.sender;\n   }\n\n    /// @dev CEOCEO\n    /// @param _newCEO CEO\n\n    function setCEO(address _newCEO) external onlyCEO {\n        require(_newCEO != address(0));\n        ceoAddress = _newCEO;\n    }\n\n    /// @dev CEOCFO\n    /// @param _newCFO CFO\n    function setCFO(address _newCFO) external onlyCEO {\n        require(_newCFO != address(0));\n        cfoAddress = _newCFO;\n    }\n\n    /// @dev CEOCOO\n    /// @param _newCOO COO\n    function setCOO(address _newCOO) external onlyCEO {\n        require(_newCOO != address(0));\n        cooAddress = _newCOO;\n    }\n\n    /// @dev bug\n    function pause() external onlyCLevel whenNotPaused {\n        paused = true;\n    }\n\n    /// @dev CEOCFOCOO\n    function unPause() public onlyCEO whenPaused {\n        paused = false;\n    }\n}\n\n/// @title Base\n/// @author yang\n/// @dev \n\ncontract Base is AccessControl {\n    // \n    struct Donator {\n        address addr; // \n        uint amount; // \n        string name; // \n    }\n\n    // \n    struct Campaign {\n        string name; // \n        uint targetAmount; // \n        uint durationInMinutes; // \n        uint deadline; // \n        address recipient; // \n        uint raisedAmount; // \n        uint donatorAccount; // \n        uint8 status; // \n        mapping (address => uint) donatorToID; // id\n        //mapping (uint => Donator) donators; // \n        address[] donatorAddresses; // \n        uint[] donatorAmounts; // \n        string[] progresses; // \n    }\n\n    // \n    struct DonationRecord {\n        address donator; // \n        address recipient; // \n        uint amount; // \n        uint timestamp; // \n    }\n\n    uint public ethExchangeRate = 1600; // 1 ether = 1600\n\n     event Donate(address from, address to,  uint amount, uint timestamp);\n     event UseDonation(address from, address to,  uint amount, uint timestamp);\n     event WithdrawDonation(address recipient, uint amount, uint timestamp);\n     event Refund(address from, address to,  uint amount, uint timestamp);\n}\n\n/// @title DonationProject\n/// @author yang\n/// @dev \n\ncontract DonationCampaign is Base {\n    //address public owner;\n    Campaign[] public  campaigns;\n    uint public totalCampaigns;\n    uint public activeCampaigns;\n\n    event CampaignChange(uint campaignID, address recipient, string description);\n\n    function createCampaign(\n         string memory _name,\n         uint _targetAmount,\n         uint _durationInMinutes\n    )   public {\n        require(\n            msg.sender != ceoAddress &&\n            msg.sender != cfoAddress &&\n            msg.sender != cooAddress,\"\"\n        );\n        address[] memory _donatorAddresses;\n        uint[] memory _donatorAmounts;\n        string[] memory _progresses;\n        Campaign memory newCampaign = Campaign({\n            name: _name,\n            targetAmount: _targetAmount,\n            durationInMinutes: _durationInMinutes,\n            deadline: now + (_durationInMinutes * 1 minutes),\n            recipient: msg.sender,\n            raisedAmount: 0,\n            donatorAccount: 0,\n            status: 0,\n            donatorAddresses: _donatorAddresses,\n            donatorAmounts: _donatorAmounts,\n            progresses:_progresses\n        });\n        campaigns.push(newCampaign);\n        totalCampaigns++;\n        emit CampaignChange(campaigns.length-1, newCampaign.recipient, \"\");\n    }\n\n    function updateStatus(uint campaignID,uint8 _status) private onlyCOO {\n        require(campaignID < campaigns.length, \"\");\n        require(_status >= 0 && _status <=4, \"\");\n        campaigns[campaignID].status = _status;\n    }\n\n    function rejectCampaign(uint campaignID) public onlyCOO {\n        require(campaignID < campaigns.length, \"\");\n        require(campaigns[campaignID].status == 0, \"\");\n        //delete campaigns[campaignID];\n        updateStatus(campaignID, 1);\n        emit CampaignChange(campaignID, campaigns[campaignID].recipient, \"\");\n    }\n\n     function approveCampaign(uint campaignID) public onlyCOO {\n         require(campaignID < campaigns.length, \"\");\n         require(campaigns[campaignID].status == 0, \"\");\n         updateStatus(campaignID, 2);\n         activeCampaigns++;\n         //totalCampaigns++;\n         emit CampaignChange(campaignID, campaigns[campaignID].recipient, \"\");\n     }\n\n    function cancelCampaign(uint campaignID) public onlyCOO {\n        require(campaignID < campaigns.length, \"\");\n        require(campaigns[campaignID].status == 2, \"\");\n        updateStatus(campaignID, 3);\n        activeCampaigns--;\n        emit CampaignChange(campaignID, campaigns[campaignID].recipient, \"\");\n    }\n\n    function finalizeCampaign(uint campaignID) public onlyCOO {\n        require(campaignID < campaigns.length, \"\");\n        require(campaigns[campaignID].status == 2, \"\");\n        require(now > campaigns[campaignID].deadline,\"\");\n        require(campaigns[campaignID].raisedAmount >= campaigns[campaignID].targetAmount,\"\");\n        uint amount = campaigns[campaignID].raisedAmount;\n        campaigns[campaignID].raisedAmount = 0;\n        address payable recipient = address(uint160(campaigns[campaignID].recipient));\n        recipient.transfer(amount * 1 ether / ethExchangeRate);\n        emit WithdrawDonation(campaigns[campaignID].recipient, amount, now);\n        updateStatus(campaignID, 4);\n        activeCampaigns--;\n        emit CampaignChange(campaignID, campaigns[campaignID].recipient, \"\");\n    }\n\n     function delayCampaign(uint campaignID, uint durationInMinutes) public onlyCOO {\n        require(campaignID < campaigns.length, \"\");\n        require(campaigns[campaignID].status == 2, \"\");\n        campaigns[campaignID].deadline += (durationInMinutes * 1 minutes);\n        emit CampaignChange(campaignID, campaigns[campaignID].recipient, \"\");\n    }\n\n     function updateCampaign(uint campaignID, string memory progress) public onlyCOO {\n         campaigns[campaignID].progresses.push(progress);\n         emit CampaignChange(campaignID, campaigns[campaignID].recipient, \"\");\n     }\n}\n\ncontract Donate is DonationCampaign {\n    uint public minimumContribution;\n    //Donator[] public donators;\n    DonationRecord[] public donationRecords;\n    uint public totalDonationRecords;\n    uint public totalRaisedAmount;\n\n    constructor() public {\n        minimumContribution = 1 * 1 ether / ethExchangeRate;\n    }\n\n    function() external payable {\n\n    }\n\n    function donate(uint campaignID) public payable {\n        require(campaignID < campaigns.length, \"\");\n        require(campaigns[campaignID].status == 2, \"\");\n        require(msg.value >= minimumContribution,\"1\");\n        Campaign storage campaign = campaigns[campaignID];\n        address addr = address(msg.sender);\n        uint amount = (ethExchangeRate * msg.value) / 1 ether;\n        //Donator memory donator = Donator({addr: addr, amount: amount});\n        uint id = campaign.donatorToID[addr];\n        if(id > 0){\n            //campaign.donators[id].amount += amount;\n            campaign.donatorAmounts[id - 1] += amount;\n        } else{\n            campaign.donatorAccount++;\n            //campaign.donatorAddresses[campaign.donatorAccount] = addr;\n            //campaign.donatorAmounts[campaign.donatorAccount] = amount;\n            campaign.donatorAddresses.push(addr);\n            campaign.donatorAmounts.push(amount);\n           // campaign.donators[campaign.donatorAccount] = donator;\n            campaign.donatorToID[addr] = campaign.donatorAccount;\n        }\n        campaign.raisedAmount += amount;\n        DonationRecord memory donationRecord = DonationRecord({\n            donator: addr,\n            recipient: campaign.recipient,\n            amount: amount,\n            timestamp:now\n        });\n        donationRecords.push(donationRecord);\n        totalDonationRecords++;\n        totalRaisedAmount += amount;\n        emit Donate(msg.sender, campaign.recipient, amount, now);\n    }\n\n    function getDonatorByID(uint campaignID, uint donatorID) public view returns (address , uint) {\n        require(campaignID < campaigns.length, \"\");\n        require(campaigns[campaignID].status == 2 || campaigns[campaignID].status == 4, \"\");\n        require(donatorID < campaigns[campaignID].donatorAccount, \"\");\n        //Donator memory donator = campaigns[campaignID].donators[donatorID];\n        Campaign memory campaign = campaigns[campaignID];\n        return (campaign.donatorAddresses[donatorID], campaign.donatorAmounts[donatorID]);\n    }\n\n    function getAllDonators(uint campaignID) public view returns(address[] memory, uint[] memory) {\n        require(campaignID < campaigns.length, \"\");\n        require(campaigns[campaignID].status == 2, \"\");\n        Campaign memory campaign = campaigns[campaignID];\n        return (campaign.donatorAddresses, campaign.donatorAmounts);\n    }\n\n    function refund(uint campaignID) public {\n        require(campaignID < campaigns.length, \"\");\n        require(campaigns[campaignID].status == 3, \"\");\n        Campaign storage campaign = campaigns[campaignID];\n        //address addr = msg.sender;\n        uint id = campaign.donatorToID[msg.sender];\n        require(id > 0,\"\");\n        uint amount = campaign.donatorAmounts[id - 1];\n        campaign.donatorAmounts[id - 1] = 0;\n        msg.sender.transfer((amount * 1 ether) / ethExchangeRate);\n        emit Refund(campaign.recipient,msg.sender,amount,now);\n    }\n}\n\ncontract Donation is Donate {\n\n}\n",
  "sourcePath": "/home/yang/dipp/contracts/Donation.sol",
  "compiler": {
    "name": "solc",
    "version": "0.5.16+commit.9c3226ce.Emscripten.clang"
  },
  "schemaVersion": "3.1.0",
  "updatedAt": "2020-06-25T03:42:50.505Z",
  "networkType": "ethereum",
  "devdoc": {
    "methods": {
      "pause()": {
        "details": "bug"
      },
      "setCEO(address)": {
        "details": "CEOCEO",
        "params": {
          "_newCEO": "CEO"
        }
      },
      "setCFO(address)": {
        "details": "CEOCFO",
        "params": {
          "_newCFO": "CFO"
        }
      },
      "setCOO(address)": {
        "details": "CEOCOO",
        "params": {
          "_newCOO": "COO"
        }
      },
      "unPause()": {
        "details": "CEOCFOCOO"
      }
    }
  },
  "userdoc": {
    "methods": {}
  }
}